:100000000C94E9000C9411010C9411010C94110151
:100010000C9411010C9411010C9411010C94110118
:100020000C9411010C9411010C94E0090C944F0AEA
:100030000C9411010C9411010C9411010C941101F8
:100040000C9411010C9411010C9411010C941101E8
:100050000C9411010C9411010C9411010C94D90C05
:100060000C9411010C94A70C0C94810C0C941101AC
:100070000C9411010C9411010C9411010C941101B8
:100080000C9411010C9411010C9411010C941101A8
:100090000C9411010C9411010C9411010C94110198
:1000A0000C9411010C9411010C941101000000003A
:1000B000000000002A2B28000000000000000000C3
:1000C0000000000000000000000000002C9EB4A012
:1000D000A1A2A434A6A7A5AE362D3738271E1F200F
:1000E000212223242526B333B62EB7B89F848586D4
:1000F0008788898A8B8C8D8E8F9091929394959618
:100100009798999A9B9C9D2F3130A3AD3504050695
:100110000708090A0B0C0D0E0F10111213141516F7
:100120001718191A1B1C1DAFB1B0B500080B00023F
:10013000020201000904000001020200000524007F
:100140001001052401010104240206052406000112
:100150000705810310004009040100020A000000A5
:100160000705020240000007058302400000040367
:10017000090412010002EF0201404123378000010F
:100180000102030141726475696E6F204C4C43009B
:1001900041726475696E6F204D6963726F0005016D
:1001A0000906A1018502050719E029E715002501C7
:1001B00075019508810295017508810395067508FA
:1001C000150025730507190029738100C000230D50
:1001D000DF1211241FBECFEFDAE0DEBFCDBF26E075
:1001E000AEE6B3E001C01D92AF3CB207E1F713E009
:1001F000A0E0B1E0EEE3FBE202C005900D92AE3666
:10020000B107D9F710E0C8EED0E004C02197FE0195
:100210000E949A13C73ED107C9F70E94E10E0C94C1
:1002200092150C940000CF93DF93FC018181909193
:10023000E103482F490F5527551F483051059CF5BC
:10024000A281B381109709F52DED33E0338322832A
:1002500020812093DF038093E0038091E203820FEB
:1002600080832091E303A22FB091E4038A2F821BA5
:100270008917E8F481813D91C82FD0E0C45FDE4F3B
:1002800038838F5F8183F2CFD90118962D913C91ED
:10029000199721153105C1F72DED33E019963C93DF
:1002A0002E931897D5CF80E0DF91CF91089581E00C
:1002B000FBCFAF92BF92CF92DF92EF92FF920F935C
:1002C0001F93CF93DF936B017C015A0189018091C9
:1002D000BF049091C004DC01ED91FC910190F0818C
:1002E000E02D6FEE09958091BF049091C004DC0170
:1002F000ED91FC910190F081E02D61E00995A091D4
:10030000BF04B091C0046F2D772788279927ED91FE
:10031000FC9111970190F081E02DCD010995A091FC
:10032000BF04B091C004B70188279927ED91FC91D3
:1003300011970190F081E02DCD010995A091BF04A6
:10034000B091C00499278F2D7E2D6D2DED91FC91DC
:1003500011970190F081E02DCD0109958091BF04A6
:100360009091C004DC01ED91FC910190F081E02DB1
:100370006C2D09958091BF049091C004DC01ED9132
:10038000FC910190F081E02D61E009958091BF041E
:100390009091C004DC01ED91FC910190F081E02D81
:1003A00060E009958091BF049091C004DC01ED915B
:1003B000FC910190F081E02D6A2D09956501BFEF58
:1003C000CB1ADB0AF12C82E0A81AB108CF2DD0E0BD
:1003D0008091BF049091C004DC01ED91FC910190EB
:1003E000F081E02DCA15DB0548F4C00FD11F6881EC
:1003F00009958881C80ED11CF394E8CF6D2D09951D
:100400008091BF049091C004DC01ED91FC910190BA
:10041000F081E02D6C2DDF91CF911F910F91FF9016
:10042000EF90DF90CF90BF90AF9009940F931F9300
:10043000CF93DF93EC018091AF049091B004DC0185
:10044000ED91FC910084F185E02D09958C018C17CC
:100450009D0789F7D0E0C0E00C171D0789F0809157
:10046000AF049091B004DC01ED91FC910284F3851E
:10047000E02D0995FE01ED5BF94F80832196ECCFCD
:10048000DF91CF911F910F910895FF920F931F93CA
:10049000CF93DF93082F162FF72E8091AF04909102
:1004A000B004DC01ED91FC910680F781E02D099507
:1004B000C3E8D6E08091AF049091B0046991DC016B
:1004C000ED91FC910190F081E02D0995B6E0C938DD
:1004D000DB0781F7C12FDF2D8091AF049091B0042D
:1004E000DC01ED91FC910190F081E02D699109957D
:1004F0008C2F811B801780F38CE090E0DF91CF91EF
:100500001F910F91FF900C941602FC0180918C03B7
:10051000882311F13FB7F89482E08093E90020919D
:10052000F200822F90E01816190614F481E090E092
:10053000882339F0289A44E640938B034091F100D8
:100540004083222339F02091F200211103C02BE6D1
:100550002093E8003FBF08958FEF9FEF089508951F
:10056000409181035091820320917F033091800359
:1005700042175307B4F49091E8009570E1F390911D
:10058000E80092FD19C08093F10080918103909161
:10059000820301968F739927892B19F48EEF80932C
:1005A000E8008091810390918203019690938203E9
:1005B0008093810381E0089580E00895EF92FF9297
:1005C0000F931F93CF93DF93F82E192FE62E042F4E
:1005D00081E0860F880F0E94B00283E00E94B00283
:1005E000CF2DD12FEC0EFD2EF11CCE15DF05B9F06D
:1005F00007FF13C0FE0184910E94B002182F80E013
:100600000E94B002812321968111EFCFDF91CF911B
:100610001F910F91FF90EF9008958881EDCF81E0B9
:10062000F5CFDF92EF92FF920F931F93CF93DF935B
:10063000D82E8A01EB017B01E40EF51ECE15DF05F5
:1006400059F0D7FE12C0FE0184910E94B00221969B
:100650008111F4CF0FEF1FEFC801DF91CF911F91F0
:100660000F91FF90EF90DF9008958881EECF2FB724
:10067000F89487708093E9009091E800892F807248
:1006800095FF04C09091F20080E4891B2FBF08956C
:10069000615030F02091F100FC0120830196F8CFE9
:1006A000289A84E680938B030895AF92BF92CF92ED
:1006B000DF92EF92FF920F931F93CF93DF936C0122
:1006C0007B018B01040F151FEB015E01AE18BF0803
:1006D000C017D10759F06991D601ED91FC910190B5
:1006E000F081E02DC6010995892B79F7C501DF91CD
:1006F000CF911F910F91FF90EF90DF90CF90BF901F
:10070000AF9008958091770381110DC082E08093AE
:10071000730384E080937403109276031092750340
:1007200081E08093770383E793E008950F931F930D
:10073000CF93DF931F92CDB7DEB782E0898342E487
:1007400050E06CE271E080E80E9411030E94820395
:10075000DC0112960D911C910115110589F0D8014B
:10076000ED91FC910280F381E02DBE016F5F7F4F20
:10077000C801099597FD04C0F80100851185ECCFEB
:1007800089810F90DF91CF911F910F910895FC0106
:10079000538D448D252F30E0842F90E0821B930BE6
:1007A000541710F0CF96089501970895FC01918D8C
:1007B000828D981761F0A28DAE0FBF2FB11D5D968F
:1007C0008C91928D9F5F9F73928F90E008958FEF31
:1007D0009FEF0895FC01918D828D981731F0828DE5
:1007E000E80FF11D858D90E008958FEF9FEF08953C
:1007F000FC01918D228D892F90E0805C9F4F821BA0
:1008000091098F739927089580E194E00E94F8037D
:1008100021E0892B09F420E0822F089580E090E008
:10082000892B29F00E94040481110C940000089582
:10083000FC01A48DA80FB92FB11DA35ABF4F2C9155
:10084000848D90E001968F739927848FA689B7894C
:100850002C93A089B1898C9182748C93938D848D13
:10086000981306C00288F389E02D80818F7D8083F4
:100870000895EF92FF920F931F93CF93DF93EC01B4
:1008800081E0888F9B8D8C8D981319C0E889F98938
:10089000808185FF14C09FB7F894EE89FF8960833B
:1008A000E889F9898081827480839FBF81E090E02C
:1008B000DF91CF911F910F91FF90EF900895F62E49
:1008C0000B8D10E00F5F1F4F0F731127E02E8C8DE3
:1008D0008E110CC00FB607FCFACFE889F989808128
:1008E00085FFF5CFCE010E941804F1CFEB8DEC0F00
:1008F000FD2FF11DE35AFF4FF0829FB7F8940B8F45
:10090000EA89FB8980818062CFCFCF93DF93EC01AE
:10091000888D8823B9F0AA89BB89E889F9898C91E7
:1009200085FD03C0808186FD0DC00FB607FCF7CFA3
:100930008C9185FFF2CF808185FFEDCFCE010E94A3
:100940001804E9CFDF91CF910895CF93DF931F92E1
:10095000CDB7DEB76983DC01ED91FC910280F381B4
:10096000E02D41E050E0BE016F5F7F4F09950F9091
:10097000DF91CF91089583E08093E9008091F200A8
:10098000882319F08AE38093E800089583E00E94A9
:10099000370390E00895CF93DF931F92CDB7DEB772
:1009A000FC018485958597FD08C02FEF3FEF3587C3
:1009B00024870F90DF91CF910895CE0101960E9478
:1009C0008502019719F4898190E0F3CF8FEF9FEFB3
:1009D000F0CF0F931F93CF93DF931F92CDB7DEB766
:1009E0008C01FC018485958597FF0BC0CE01019693
:1009F0000E948502019771F4898190E0F801958742
:100A00008487F801848595850F90DF91CF911F91A0
:100A10000F9108958FEF9FEFF1CFFC0184859585AD
:100A200097FD0BC09FB7F89482E08093E900809116
:100A3000F2009FBF90E0019608959FB7F89482E07E
:100A40008093E9008091F2009FBF90E008953FB746
:100A5000F89480916F0390917003A0917103B0910D
:100A6000720326B5A89B05C02F3F19F00196A11D62
:100A7000B11D3FBFBA2FA92F982F8827BC01CD01E8
:100A8000620F711D811D911D42E0660F771F881F47
:100A9000991F4A95D1F708958F929F92AF92BF9276
:100AA000CF92DF92EF92FF924B015C010E942705EB
:100AB0006B017C010E9427056C197D098E099F0935
:100AC000683E734081059105A8F321E0821A9108E0
:100AD000A108B10888EEC80E83E0D81EE11CF11C05
:100AE00081149104A104B10429F7FF90EF90DF90E5
:100AF000CF90BF90AF909F908F900895CF92DF924C
:100B0000EF92FF921F93CF93DF93CDB7DEB7649739
:100B10000FB6F894DEBF0FBECDBF7C01D12CC12C27
:100B200010E08091BF049091C004DC01ED91FC9134
:100B30000084F185E02D0995892BE9F461E070E0EE
:100B400080E090E00E944C05BFEFCB1ADB0AE8E89A
:100B5000CE16E3E1DE0628F38FEF64960FB6F89425
:100B6000DEBF0FBECDBFDF91CF911F91FF90EF9001
:100B7000DF90CF9008958091BF049091C004DC0174
:100B8000ED91FC910284F385E02D0995E1E0F0E020
:100B9000EC0FFD1FE10FF11D8083111104C089814D
:100BA0008F3E09F0BECF1F5F193008F4BACF89819C
:100BB0008F3E49F58A81813031F58885998598275E
:100BC000892798279C01285F3F4F1217130609F0C9
:100BD00008F4A7CF02972F81F701208340E0242F4C
:100BE00030E02817390708F0B8CFF701E20FF31FFC
:100BF0006AE070E06C0F7D1F260F371FD9012C9122
:100C000021834F5FECCF8EEFA8CF7F928F929F9280
:100C1000AF92BF92CF92DF92EF92FF920F931F930A
:100C2000CF93DF93C82E8B017A0180918C038111C1
:100C300010C08FEF9FEFDF91CF911F910F91FF9029
:100C4000EF90DF90CF90BF90AF909F908F907F906C
:100C500008958091850380FF05C08091E000826047
:100C60008093E000CE2DDF2DD12C8AEFB82E8C2D75
:100C70008770982E8C2D8072882E8C2D8074782E03
:100C80009AE3A92E209719F4DD2009F452C08C2D87
:100C90000E94370381110AC0BA94BB2051F261E06F
:100CA00070E080E090E00E944C05ECCF8C171D06B0
:100CB00011F00CF08C2F9FB7F8949092E9002091DE
:100CC000E80025FD02C09FBFDDCF282F30E0C21B0A
:100CD000D30B882029F08150A0F01092F100FBCFB7
:100CE000F801C7FC0AC0815050F041914093F100D7
:100CF000FACF44914093F10031968150D0F7020F22
:100D0000131FDD2021F0A092E800D12CDCCF8091D0
:100D1000E80085FD07C0A092E800DD24D394209769
:100D200091F2F3CF209779F6772069F2A092E8004C
:100D3000CACF5D9A84E680938403C7017CCFEF928B
:100D4000FF921F93CF93DF931F92CDB7DEB77C0145
:100D50008091EE0381112AC011E01093E1031093FA
:100D6000E20387EE93E09093E4038093E303109211
:100D7000E6031092E5038DE891E09093DE03809303
:100D8000DD031092E9031092E8031092EB03109236
:100D9000EA031093EC031093ED0381EC8093E703D7
:100DA0000E9482030E9413011093EE0382E0898364
:100DB00041E050E0BE016F5F7F4F8091E0030E94F1
:100DC000050697FD08C08091E00348E050E0B701B8
:100DD00080640E9405060F90DF91CF911F91FF90D4
:100DE000EF900895CF93DF93EC0180910B0188235E
:100DF00031F083E00E9405061816190634F081E0F0
:100E000090E09B838A8380E090E0DF91CF9108950A
:100E1000DC01FB0112962C91129784819581281791
:100E2000190641F491818081813A31F49D7F81E0FE
:100E3000913009F080E008958132E1F79B3029F488
:100E400082811F968C9381E008959A3099F7828170
:100E500050968C93F8CFDC01FB0188E4808389E411
:100E6000818384E482831D969C911D979F709F5B74
:100E700093831D968D919C9124E0969587952A9554
:100E8000E1F78F708F5B848385E00895EF92FF9286
:100E90000F931F93CF93DF93FB012081213871F5CE
:100EA0002381223259F5DC0112964C91248135813F
:100EB0004217130619F5EC010B851C85F12CE12C6A
:100EC0000115110589F0F801448155816281738112
:100ED00080E80E9411038F3F980749F0E80EF91E41
:100EE000D8010D911C91ECCF81E08F87C701DF9174
:100EF000CF911F910F91FF90EF90089590E080E0C7
:100F0000F6CFCF93DF93CDB7DEB769970FB6F894DE
:100F1000DEBF0FBECDBFFC01DB018C918F5F8C93D8
:100F20009E012D5F3F4F8DE0D9011D928A95E9F713
:100F300029E0298384E08A8391E09D8383E08E8386
:100F40002A8721E22B879C879D879F8722E2288B17
:100F500027E02B8B25E02C8B8E8B20E430E0388F24
:100F60002F8B998F82818B8395858685998B8A8B30
:100F7000838180688D8B49E150E0BE016F5F7F4FB8
:100F800080E00E94110369960FB6F894DEBF0FBE91
:100F9000CDBFDF91CF910895CF92DF92EF92FF9274
:100FA0000F931F93CF93DF936C01EB017B01E40E52
:100FB000F51E10E000E0CE15DF0581F069916D307F
:100FC000D1F3D601ED91FC910190F081E02DC601A5
:100FD0000995892B19F00F5F1F4FEDCFC801DF91E5
:100FE000CF911F910F91FF90EF90DF90CF900895D8
:100FF000EF92FF921F93CF93DF93EC01162FE8E758
:10100000E60F683880F4E62FF0E067FF4FC0E05845
:10101000F10921E030E001C0220FEA95EAF78C8166
:10102000822B8C83E0E08E818E17D9F08F81E817B8
:10103000C1F08885E817A9F08985E81791F08A85BD
:10104000E81779F08B85E81761F0DE01169690E0DD
:1010500080E02D9121114EC08C0F9D1FDC01169652
:10106000EC93CE0104960E949F06EE24E394F12CAB
:10107000183838F11858DE0186E0112341F0169631
:101080009C911697191303C016961C9216978150BF
:1010900011968111F2CFCE0104960E949F06C701DE
:1010A000DF91CF911F91FF90EF900895E455FF4F8E
:1010B000E491E11118C081E090E09B838A83F12CD8
:1010C000E12CE12FF0E017FF21C0E058F10981E0A9
:1010D00090E001C0880FEA95EAF780959C8189230A
:1010E0008C8310E0C8CFE7FF9ECF8C8182608C8319
:1010F000EF7799CF01968630910509F0AACF81E06C
:1011000090E09B838A83F12CE12CB2CFE455FF4F12
:101110001491112309F4C3CF17FFADCF8C818D7FBC
:101120008C831F77A8CF90E080E00895DC01ED91DB
:10113000FC910280F381E02D0994CF93DF93EC01C1
:1011400088819981009711F00E943C1419821882BD
:101150001D821C821B821A82DF91CF9108950F930A
:101160001F93CF93DF93EC0188819981009759F009
:101170002A813B812617370730F081E0DF91CF913C
:101180001F910F9108958B016F5F7F4F0E94C514CF
:10119000009759F0998388831B830A832C813D81B2
:1011A000232B59F7FC011082E8CF80E0E7CFEF92C4
:1011B000FF920F931F93CF93DF93EC011982188254
:1011C0001B821A821D821C826115710521F18B011F
:1011D000FB0101900020E9F731977F01E61AF70A39
:1011E000B7010E94AF08811109C0CE01DF91CF91F4
:1011F0001F910F91FF90EF900C949D08FD82EC825F
:10120000B80188819981DF91CF911F910F91FF9053
:10121000EF900C948B15DF91CF911F910F91FF9060
:10122000EF900895FB0101900020E9F73197AF019D
:10123000461B570BDC01ED91FC910280F381E02D00
:1012400009948F929F92AF92BF92EF92FF920F9369
:101250001F93CF93DF93CDB7DEB7A1970FB6F89466
:10126000DEBF0FBECDBF7C01FA01CB0119A2223037
:1012700008F42AE08E010F5D1F4F822E912CB12CB5
:10128000A12CBF01A50194010E947813F901CA01A4
:101290006A300CF5605DD8016E938D01232B242BF1
:1012A000252B79F790E080E0109721F0BD01C70170
:1012B0000E941209A1960FB6F894DEBF0FBECDBFF3
:1012C000DF91CF911F910F91FF90EF90BF90AF9062
:1012D0009F908F900895695CDECFCF92DF92EF925E
:1012E000FF92CF93DF936C01990FEE08FF08F7FE92
:1012F0001BC06DE28DE893E00E94A504EC01442739
:101300005527BA014C195D096E097F092AE08DE85D
:1013100093E00E9421098C0F9D1FDF91CF91FF90D8
:10132000EF90DF90CF9008952AE0B701A6018DE8F5
:1013300093E0DF91CF91FF90EF90DF90CF900C94EE
:1013400021090F931F93CF93DF93EC010E941209A1
:101350008C0161EA71E0CE010E941209800F911F99
:10136000DF91CF911F910F9108950F931F93CF930A
:10137000DF93EC01FB0144815581608171810E9402
:1013800096088C0161EA71E0CE010E941209800F7B
:10139000911FDF91CF911F910F9108952091CA0560
:1013A00021110DC0BC0184E094E00E94B50960EBFE
:1013B00084E094E00E94F80781E08093CA050895D4
:1013C0001F920F920FB60F9211248F939F938091CB
:1013D000E1009091E100937F9093E10083FF0FC0C3
:1013E0001092E90091E09093EB001092EC0092E3F0
:1013F0009093ED0010928C0398E09093F00082FFA0
:1014000022C093E09093E9009091F200992319F0A3
:101410009AE39093E80090918403992341F090918E
:101420008403915090938403911101C05D98909131
:101430008B03992341F090918B03915090938B03F0
:10144000911101C0289884FF18C08091E2008E7E1F
:1014500081608093E2008091E1008F7E8093E100C3
:10146000809185038E7E8061809385039F918F910B
:101470000F900FBE0F901F90189580FFF7CF8091AF
:10148000E2008E7E80618093E2008091E1008E7E9A
:101490008093E100809185038E7E8160E5CF1F926D
:1014A0000F920FB60F921124CF92DF92EF92FF921C
:1014B0000F931F932F933F934F935F936F937F935C
:1014C0008F939F93AF93BF93EF93FF93CF93DF934C
:1014D000CDB7DEB76C97DEBFCDBF1092E90080912B
:1014E000E80083FF25C068E0CE0145960E944803CE
:1014F00082EF8093E8008D8987FF39C09091E800E2
:1015000090FFFCCF982F907609F034C19E894F89C7
:10151000588D2F89F88C911131C0803861F58091F8
:1015200086038093F1001092F1008EEF8093E80023
:101530006C960FB6F894DEBF0FBECDBFDF91CF9192
:10154000FF91EF91BF91AF919F918F917F916F919B
:101550005F914F913F912F911F910F91FF90EF90CD
:10156000DF90CF900F900FBE0F901F9018959EEFB9
:101570009093E800C7CF1092F100D5CF913059F485
:101580008111D3CF4130510581F6809186038D7F43
:1015900080938603CACF933049F48111C6CF41307E
:1015A000510519F6809186038260F2CF953041F49F
:1015B0008091E80080FFFCCF20682093E300B5CF46
:1015C000963009F0A9C00B8D1C8D22E01092E90025
:1015D0001092820310928103F2122EC010928003A7
:1015E00010927F030E9496031F8299E09983FA82EA
:1015F00091E09E8390EA98879AEF998720918103E2
:1016000030918203275F3F4F3C832B838D83109261
:10161000E9001092820310928103109380030093DB
:101620007F0349E050E0BE016F5F7F4F80E00E9482
:1016300011030E94960379CF1093800300937F03D8
:101640000E948203DC0112960D911C910115110577
:1016500009F451C1D801ED91FC910480F581E02D90
:10166000BE016B5E7F4FC8010995009709F03EC12E
:10167000F80100851185EACFF3E0FF120EC08F89D3
:10168000882309F440C0823061F440E86DE080E9CD
:1016900091E00E94DE02811148CF81E28093EB004D
:1016A00047CF813029F440E86BE084E891E0F1CF46
:1016B000833099F70E948203DC011296ED90FC9032
:1016C0008E010F5F1F4F6801E114F10479F0D7011B
:1016D000ED91FC910680F781E02DB801C7010995D5
:1016E000080F111DF701E084F184EECFD8011C92A0
:1016F000F60101900020E9F73197BF016C197D09CF
:1017000040E0C601C6CF6EE671E0FB01449150E0B7
:1017100080E80E94110309CF973009F4BECF9830BA
:1017200021F481E08093F10000CF993009F0FDCEE3
:10173000837009F0B2CFEDE0F1E081E031E096E3B3
:101740002191222371F08093E9003093EB00DF01B7
:1017500011972C912093EC009093ED008F5F8730D0
:1017600079F78EE78093EA001092EA008F898093E0
:101770008C03DBCE8B8D9C8D1092E900109282033E
:10178000109281039093800380937F03898D811150
:1017900092C08E899D89913A49F4813209F07DCFBA
:1017A00047E050E064E071E080E0B3CF913209F0AF
:1017B00074CF833269F48F89988DB0E0A0E0809374
:1017C000000190930101A0930201B0930301ADCEFB
:1017D000803269F48091E80082FFFCCF67E084E00A
:1017E00091E00E9448038BEF8093E8009ECE823206
:1017F00009F09BCE8F8980930B01EEEFFFE7859177
:1018000094918B3F9C4D51F1E0E0F8E08091040110
:1018100090910501A0910601B0910701803B944091
:10182000A105B105F1F480910B0180FD1AC0EE3FD6
:101830008AE0F80789F587E797E7918380838091AD
:1018400060008093830388E19BE00FB6F894A8952D
:10185000809360000FBE9093600067CEEEEFFAE0D9
:10186000D5CF808191818737974709F05ECEA895C3
:1018700080916000886180936000809183038093F1
:101880006000EE3F2AE0F20789F08091FE0A909115
:10189000FF0A9183808349CE8081918187379807A1
:1018A00051F29093FF0A8093FE0AC5CF1092FF0A6F
:1018B0001092FE0A3ACE0E948203DC0112960D912C
:1018C0001C910115110509F4E8CED801ED91FC91A8
:1018D0000190F081E02DBE016B5E7F4FC80109953C
:1018E000811123CEF80100851185EBCF181619065A
:1018F0000CF41BCED2CEF1E0FF12BECE62E771E057
:1019000004CF1F920F920FB60F9211242F933F9383
:101910004F935F936F937F938F939F93AF93BF93F7
:10192000EF93FF9380E194E00E941804FF91EF9100
:10193000BF91AF919F918F917F916F915F914F91E7
:101940003F912F910F900FBE0F901F9018951F92EF
:101950000F920FB60F9211242F938F939F93EF93B3
:10196000FF93E0912004F09121048081E09126040E
:10197000F091270482FD1BC09081809129048F5F24
:101980008F7320912A04821741F0E0912904F0E03E
:10199000E05FFB4F958F80932904FF91EF919F911A
:1019A0008F912F910F900FBE0F901F9018958081EF
:1019B000F4CF1F920F920FB60F9211242F933F93E3
:1019C0008F939F93AF93BF938091870390918803E8
:1019D000A0918903B0918A0330916E0323E0230F15
:1019E0002D3758F50196A11DB11D20936E038093EC
:1019F000870390938803A0938903B0938A0380910F
:101A00006F0390917003A0917103B09172030196DE
:101A1000A11DB11D80936F0390937003A093710378
:101A2000B0937203BF91AF919F918F913F912F918E
:101A30000F900FBE0F901F90189526E8230F029667
:101A4000A11DB11DD2CFCF93DF931092130410923A
:101A5000120488EE93E0A0E0B0E080931404909329
:101A60001504A0931604B093170429E631E03093CF
:101A70001104209310042DEC30E030931D042093CA
:101A80001C042CEC30E030931F0420931E0428EC3F
:101A900030E0309321042093200429EC30E030938F
:101AA0002304209322042AEC30E030932504209371
:101AB00024042EEC30E03093270420932604109267
:101AC000290410922A0410922B0410922C041092D4
:101AD000900310928F038093910390939203A093AD
:101AE0009303B09394038BE791E090938E038093DC
:101AF0008D038FEF9FEF90939A0380939903109239
:101B000007041092060489E991E0909305048093FC
:101B100004048091FC03811113C01092F70310920A
:101B2000F6038EE991E09093F9038093F8038FE236
:101B300090E09093FB038093FA0381E08093FC0391
:101B40008091EE0381112AC0C1E0C093E103C093EC
:101B5000E20387EE93E09093E4038093E303109213
:101B6000E6031092E5038DE891E09093DE03809305
:101B7000DD031092E9031092E8031092EB03109238
:101B8000EA03C093EC03C093ED0381EC8093E70379
:101B90000E9482030E941301C093EE03E091E803C8
:101BA000F091E903309709F003C186EF93E0909339
:101BB000E9038093E8038091EA039091EB0320917D
:101BC000FA033091FB03820F931F9093EB038093F2
:101BD000EA031092AE041092AD041092B004109279
:101BE000AF041092B7041092B8041092B904109286
:101BF000BA048FEF9FEFDC018093BB049093BC0489
:101C0000A093BD04B093BE041092C0041092BF0410
:101C100088EC90E0A0E0B0E08093C6059093C70503
:101C2000A093C805B093C9051092CA05D0E0C0E0E2
:101C300063EA71E0CE0185539A4F0E94D708269639
:101C4000C837D105A9F786E0E9E1F1E0A3E8B6E0FD
:101C500001900D928A95E1F786E0EFE1F1E0A9E8C5
:101C6000B6E001900D928A95E1F789E0E5E2F1E0B6
:101C7000AFE8B6E001900D928A95E1F78BE0EEE2D5
:101C8000F1E0A8E9B6E001900D928A95E1F786E0CF
:101C9000E9E3F1E0A3EAB6E001900D928A95E1F75D
:101CA00086E0EFE3F1E0A9EAB6E001900D928A95B3
:101CB000E1F787E0E5E4F1E0AFEAB6E001900D92EC
:101CC0008A95E1F787E0ECE4F1E0A6EBB6E001905D
:101CD0000D928A95E1F786E0E3E5F1E0ADEBB6E041
:101CE00001900D928A95E1F786E0E9E5F1E0A3EC39
:101CF000B6E001900D928A95E1F71092B704109228
:101D0000B8041092B9041092BA048FEF9FEFDC016F
:101D10008093BB049093BC04A093BD04B093BE0415
:101D200020E134E03093C0042093BF04E09120040C
:101D3000F091210482E08083E0912004F09121045D
:101D40001082E0911C04F0911D041082E0911E04A9
:101D5000F0911F0480E1808310922804E091240414
:101D6000F091250486E08083E0912204F091230421
:101D7000808180618083E0912204F091230480813E
:101D800088608083E0912204F09123048081806840
:101D90008083E0912204F091230480818F7D8083F1
:101DA0003093B0042093AF04DF91CF910895FC01EC
:101DB000808191810097D9F786EF93E091838083AA
:101DC000FACECF93DF93CDB7DEB72C970FB6F8944A
:101DD000DEBF0FBECDBF789484B5826084BD84B56C
:101DE000816084BD85B5826085BD85B5816085BD16
:101DF00080916E00816080936E00109281008091CE
:101E00008100826080938100809181008160809355
:101E1000810080918000816080938000809191009A
:101E20008260809391008091910081608093910005
:101E3000809190008160809390008091C1008460C7
:101E40008093C1008091C10082608093C100809125
:101E5000C10081608093C1008091C3008160809344
:101E6000C3008091C00082608093C0008091C20056
:101E700081608093C20080917A00846080937A00B0
:101E800080917A00826080937A0080917A008160EC
:101E900080937A0080917A00806880937A00109213
:101EA0008C0310928603109285038091D700816085
:101EB0008093D70080EA8093D80089B5806189BD7E
:101EC00089B5826089BD09B400FEFDCF61E070E094
:101ED00080E090E00E944C058091D8008F7C80616A
:101EE0008093D8008091E000807F8093E000809113
:101EF000E1008E7E8093E1008DE08093E200559AB0
:101F0000209A5D9828988FEF9FEF90939A03809383
:101F100099038DE893E09093AE048093AD0483E140
:101F200089838091B7049091B8042091B9043091CD
:101F3000BA043A832B839C838D836091BB04709198
:101F4000BC048091BD049091BE049E012F5F3F4F61
:101F500047E050E00E945901CE0101960E947E05A3
:101F6000813009F0D7C08981873009F0D3C08A81D8
:101F70008111D0C090E0492E90E0592E3324339443
:101F800022E0222E66246A94762C63EA71E0CE0168
:101F900007960E94D7088DE893E00E940D05181659
:101FA00019060CF076C18DE893E00E94CB04E09115
:101FB000C1058A3009F061C10E2E000CFF0BE355FC
:101FC000FB4F848B1092C1058091C104843409F4C5
:101FD00042C1803509F4BAC08134E9F667EC71E09A
:101FE00081EC94E00E940D1367EC71E090E080E0DA
:101FF0000E940D130E94EF128C0169EC71E08DE8D4
:1020000093E00E94A1090431110508F098C061EF26
:1020100071E08DE893E00E941209C8010E946D09E9
:102020006DEF71E08DE893E00E94A1098BE0E82E4E
:10203000F12C21E0E21AF10809F4B8C269E876E06F
:1020400086E00E94450280914C06811171C064E6D1
:1020500070E080E090E00E944C056FEA76E087E057
:102060000E94450269E876E086E00E944502809180
:102070004C06811156C064EF71E080E090E00E9450
:102080004C0566EB76E087E00E94450210929406CC
:1020900000939506EFE8F6E090E080E02191820F52
:1020A000911D26E0E639F207C9F7909396068093D2
:1020B000970646E050E063E876E08091AF049091A7
:1020C000B0040E94960849E050E06FE876E0809105
:1020D000AF049091B0040E9496088CE090E00E94BA
:1020E000160269E072E08DE893E00E94A1096DE1BB
:1020F00072E08DE893E00E94A10969E072E08DE84A
:1021000093E00E94A10960ED77E080E090E00E94FA
:102110004C0541CF64EA71E08DE893E00E94A1098B
:1021200029CF64E670E080E090E00E944C059ACFF1
:1021300068EE73E080E090E00E944C057ACF66E2A2
:1021400072E08DE893E00E94A10957CF67EC71E03F
:1021500081EC94E00E940D1367EC71E090E080E068
:102160000E940D130E94EF126C0160E472E090E097
:1021700080E00E940D13BC01CE0101960E94D70899
:102180008F819885009791F169817A816115710538
:1021900059F149855A852D813E814217530720F117
:1021A0000E948B158D819E819C878B8789819A8166
:1021B0000E943C1486E08C9D80018D9D100D1124A1
:1021C000C80185539A4F7C01AF80B884A114B10433
:1021D00039F08B849C84B4010E94AF08811115C032
:1021E000C7010E949D0820C00E943C1489819A81E9
:1021F00098878F838B819C819A8789878D819E8127
:102200009C878B871A821982D1CF03551B4FF80107
:10221000EE5DFE4F91828082025E1E4FB501F80195
:10222000808191810E948B1562E472E08DE893E0D9
:102230000E941209C6010E946D096FE472E08DE8E8
:1022400093E00E941209BE01695F7F4F8DE893E021
:102250000E94B509A0CE63EC76E086E00E944502BC
:1022600060ED77E080E090E00E944C0560E672E06F
:102270008DE893E00E94A1098ECEAE2F0E2E000CA9
:10228000BB0BA355BB4F54968C93EF5FE093C105F6
:1022900082CE8F8198850E943C142FB7F89480914C
:1022A000870390918803A0918903B0918A032FBF7F
:1022B0004091C2055091C3056091C4057091C50558
:1022C000841B950BA60BB70B4091C6055091C70513
:1022D0006091C8057091C905481759076A077B07BF
:1022E00008F07BC02FB7F894809187039091880302
:1022F000A0918903B0918A032FBF8093C205909368
:10230000C305A093C405B093C50539826091BB0491
:102310007091BC048091BD049091BE049E012F5F1A
:102320003F4F43E050E00E945901CE0101960E94C8
:102330007E05813019F08981873059F48A81813096
:1023400009F457C080F0823009F445C0833009F4A5
:1023500057C08091AD049091AE0463EA72E000979B
:1023600009F04BC03AC08091AD049091AE04009743
:1023700021F065E772E00E94A10929823A8260910A
:10238000BB047091BC048091BD049091BE049E0179
:102390002F5F3F4F44E050E00E945901CE0101966B
:1023A0000E947E052091AD043091AE04813019F079
:1023B0008981873051F48A81863009F4D6C048F586
:1023C000882391F1813009F4DAC02115310529F013
:1023D00063EA72E0D0C01092CA054114510409F4B6
:1023E000D4CD0E940404882309F4CFCD0E940000BC
:1023F000CCCD61E872E08DE893E00E94A109EDCFB9
:102400008091AD049091AE0465E972E00097A9F760
:10241000E4CF873011F08531C1F661ED72E021150E
:10242000310509F0A8C0D9CF2115310529F061EB9C
:1024300072E0C9010E94A1097092B2046092B104D5
:102440007092B4046092B30486E0EFE5F1E0DE013F
:10245000119601900D928A95E1F76091BB047091FD
:10246000BC048091BD049091BE049E012F5F3F4F3C
:1024700048E050E00E945901CE0101960E947E057D
:102480002091AD043091AE04813021F089818730F4
:1024900009F09BCF8B819C8198278927982790935F
:1024A000B2048093B1048D819E8198278927982753
:1024B0009093B4048093B3048A8181115EC0211586
:1024C000310529F065EF72E0C9010E94A1098091F0
:1024D000AD049091AE04009761F16FE173E00E944A
:1024E00012094091B1045091B20470E060E02AE01A
:1024F0008091AD049091AE040E9421096AE273E0DC
:102500008091AD049091AE040E9412090091AD0437
:102510001091AE044091B3045091B40470E060E0B7
:102520002AE0C8010E94210961EA71E0C8010E9405
:1025300012098091B1049091B2048730910570F531
:102540008430910580F56FE373E0019708F445CF7F
:10255000CE0101960E94D708CE0101960E94CE09B5
:1025600089819A810E943C1438CF61EC72E0211578
:10257000310509F432CFC90140CF813031F461E82F
:1025800072E021153105B9F728CF893009F01DCF48
:102590006AE073E02115310571F71FCF66E573E03E
:1025A0000A97B0F21ACF6CE473E0D2CF69E072E020
:1025B0008DE893E00E94A10960E673E09ACDCF9385
:1025C000DF93C3E4D6E02697888199810E943C146A
:1025D00085E0CB3CD807B9F7DF91CF910895FC0196
:1025E00088279927E89421912032E9F3293010F0C7
:1025F0002E30C8F32B3241F02D3239F4689404C0E8
:102600000E943913820F911D219120532A30C0F36B
:102610001EF4909581959F4F089549EC56E00E94D5
:1026200012130895FA01A191B081009719F410973F
:10263000E1F0CD01DC01CD010D90002011F4C001CD
:1026400013C0FB012191222319F02015D9F7F3CFF4
:10265000FB012191201519F41E92119606C0222328
:10266000C1F70D900020A1F7D001FA01A193B0832A
:1026700008957AE0979F902D879F802D910D1124CA
:1026800008952F923F924F925F926F927F928F9216
:102690009F92AF92BF92CF92DF92EF92FF920F93F1
:1026A0001F93CF93DF93CDB7DEB7CA1BDB0B0FB6FB
:1026B000F894DEBF0FBECDBF09942A8839884888B8
:1026C0005F846E847D848C849B84AA84B984C8844E
:1026D000DF80EE80FD800C811B81AA81B981CE0F45
:1026E000D11D0FB6F894DEBF0FBECDBFED0108952A
:1026F000A1E21A2EAA1BBB1BFD010DC0AA1FBB1F06
:10270000EE1FFF1FA217B307E407F50720F0A21B77
:10271000B30BE40BF50B661F771F881F991F1A94E4
:1027200069F760957095809590959B01AC01BD010E
:10273000CF010895EE0FFF1F0590F491E02D09944D
:102740000F931F93CF93DF938230910510F482E0B3
:1027500090E0E091CD06F091CE0630E020E0B0E0D0
:10276000A0E0309799F42115310509F44AC0281BDF
:10277000390B24303105D8F58A819B8161157105AB
:1027800089F1FB0193838283FE0111C04081518155
:102790000281138148175907E0F04817590799F447
:1027A000109761F012960C93129713961C93329621
:1027B000CF01DF91CF911F910F9108950093CD0626
:1027C0001093CE06F4CF2115310551F0421753076F
:1027D00038F0A901DB019A01BD01DF01F801C1CF89
:1027E000EF01F9CF9093CE068093CD06CDCFFE01B9
:1027F000E20FF31F8193919322503109398328838B
:10280000D7CF2091CB063091CC06232B41F42091D9
:102810001501309116013093CC062093CB06209100
:102820001301309114012115310541F42DB73EB744
:102830004091170150911801241B350BE091CB06F4
:10284000F091CC06E217F307A0F42E1B3F0B2817DC
:10285000390778F0AC014E5F5F4F2417350748F019
:102860004E0F5F1F5093CC064093CB0681939193FC
:102870009FCFF0E0E0E09CCFCF93DF930097E9F0AB
:10288000FC01329713821282A091CD06B091CE0640
:10289000ED0130E020E01097A1F420813181820F1A
:1028A000931F2091CB063091CC062817390709F0E9
:1028B00061C0F093CC06E093CB06DF91CF910895F1
:1028C000EA01CE17DF07E8F54A815B819E014115D9
:1028D0005105B1F7E901FB83EA8349915991C40F8E
:1028E000D51FEC17FD0761F4808191810296840F5A
:1028F000951FE90199838883828193819B838A83D1
:10290000F0E0E0E012968D919C9113970097B9F555
:102910002D913C911197CD010296820F931F20912A
:10292000CB063091CC062817390739F6309751F588
:102930001092CE061092CD06B093CC06A093CB0693
:10294000BCCFD383C28340815181840F951FC817A8
:10295000D90761F44E5F5F4F88819981480F591FF5
:10296000518340838A819B81938382832115310522
:1029700009F0B0CFF093CE06E093CD069ECFFD01D7
:10298000DC01C0CF13821282D7CFB0E0A0E0EBEC25
:10299000F4E10C9443138C01009751F4CB010E9495
:1029A000A0138C01C801CDB7DEB7E0E10C945F1332
:1029B000FC01E60FF71F9C0122503109E217F307D3
:1029C00008F49DC0D901CD91DC911197C617D707A6
:1029D00098F0C530D10530F3CE01049786179707DC
:1029E00008F3C61BD70B2297C193D1936D937C93A9
:1029F000CF010E943C14D6CF5B01AC1ABD0A4C013A
:102A00008C0E9D1EA091CD06B091CE06512C412C6E
:102A1000F12CE12C109731F58091CB069091CC06EA
:102A20008815990509F05CC04616570608F058C08D
:102A30008091130190911401009741F48DB79EB7D6
:102A40004091170150911801841B950BE817F90765
:102A500008F055C0F093CC06E093CB06F9017183E2
:102A60006083A0CF8D919C91119712966C901297D4
:102A700013967C901397A815B90559F56C0142E09F
:102A8000C40ED11CCA14DB0420F1AC014A195B0945
:102A9000DA011296159780F0628273825183408327
:102AA000D9016D937C93E114F10471F0D701139671
:102AB000FC93EE93129776CF22968C0F9D1FF9010F
:102AC00091838083F301EFCFF093CE06E093CD06A0
:102AD00069CF4816590608F42C017D01D3019ACF1D
:102AE000CB010E94A0137C01009749F0AE01B80110
:102AF0000E948215C8010E943C14870153CF10E048
:102B000000E050CFFB01DC0102C001900D9241506A
:102B10005040D8F70895FB01DC0101900D92002090
:102B2000E1F7089510E0C8EED0E004C0FE010E9475
:0E2B30009A132196C93ED107C9F7F894FFCF3A
:102B3E00FFFFFFFF00E100000000000000C18081E8
:102B4E000000000000CF068000EF01FFFFFFFF0135
:102B5E0000030100050100060601000B001901002B
:102B6E00080401000003E700F801000316001A0133
:102B7E0000031D00210100040201000801000402EF
:102B8E000200090100030500090100030D00111BDD
:102B9E0001000000A30000000039045503C703859F
:102BAE0004F803D603EA0300000000A504F206C6EB
:102BBE0004BB040D05CB04E90400000000080781E6
:102BCE000746072B0700000000F807CC079308AF55
:102BDE00020D0A00446964206E6F742066696E648B
:102BEE002066696E6765727072696E742073656EA9
:102BFE00736F72203A28002C00506C65617365204B
:102C0E00656E7465722074686520494420796F750D
:102C1E002077616E7420746F20656E726F6C6C3AE3
:102C2E0000456E726F6C6C696E67205B005D20668E
:102C3E00696E6765722E2E2E002D2D2D2D2D2D2DAC
:102C4E002D2D2D2D2D2D2D2D2D2D2D2D0041646451
:102C5E00206F6B202100506C6561736520656E746A
:102C6E00657220612076616C6964204944202100E0
:102C7E003B005365742066696E676572205B005D6C
:102C8E0027732070617373776F726420746F2000E6
:102C9E00416C6C2046696E6765722064656C657464
:102CAE006564202100496D6167652074616B656EF6
:102CBE0000436F6D6D756E69636174696F6E20652B
:102CCE0072726F7200496D6167696E67206572720C
:102CDE006F7200556E6B6E6F776E206572726F72CB
:102CEE0000496D61676520636F6E76657274656409
:102CFE0000496D61676520746F6F206D6573737920
:102D0E0000436F756C64206E6F742066696E64206C
:102D1E0066696E6765727072696E7420666561743D
:102D2E007572657300466F756E64206120707269EE
:102D3E006E74206D617463682100446964206E6F47
:102D4E00742066696E642061206D6174636800464C
:102D5E006F756E64204944202300207769746820C3
:102D6E00636F6E666964656E6365206F6620004CE6
:102D7E00313635393832333738312E00313233343B
:102D8E0035363738390061616162626263636300B0
:0E2D9E00416464206661696C65642021000058
:2070000055C000006EC000006CC000006AC0000068C0000066C0000064C0000062C0000043
:2070200060C000005EC00000F2C400005AC0000058C0000056C0000054C0000052C00000EE
:2070400050C0000078C000004CC000004AC0000048C0000046C0000044C0000042C00000BE
:2070600040C000003EC000003CC000003AC0000038C0000036C0000034C0000032C0000048
:2070800030C000002EC000002CC000002AC0000028C0000026C0000024C0000022C00000A8
:2070A00020C000001EC000001CC0000011241FBECFEFDAE0DEBFCDBF11E0A0E0B1E0E2E3BC
:2070C000FFE702C005900D92A83AB107D9F711E0A8EAB1E001C01D92AE3BB107E1F78FD30B
:2070E00026C78ECFF89410926F0010928100109285001092840081E085BF15BE47985D98ED
:2071000028980C94000008952091B2013091B3012F5F3F4F3093B3012093B201932F37FFA8
:2071200003C08EEF831B982F990F921710F447980895479A08951F920F920FB60F9211246E
:207140002F938F939F93EF93FF9310928500109284008091A8019091A901009741F00197D3
:207160009093A9018093A801892B09F45D988091AA019091AB01009741F001979093AB0128
:207180008093AA01892B09F42898E0E0F0E0859194918F5F9F4F49F08091AC019091AD0153
:2071A00001969093AD018093AC01FF91EF919F918F912F910F900FBE0F901F90189584E0BC
:2071C0008093E9000DC08091E8008B778093E80003C08EB3882351F08091E80082FFF9CFBE
:2071E0008091E80085FFEFCF8091F1000895982F83E08093E9008091E80085FD0DC0809136
:20720000E8008E778093E80003C08EB3882369F08091E80080FFF9CF9093F1005D9A84E6C9
:2072200090E09093A9018093A80108954F925F926F927F928F929F92AF92BF92CF92DF921E
:20724000EF92FF920F931F93CF93DF9384E08093E9008091E80082FF57C2289A84E690E065
:207260009093AB018093AA01AADF182F853481F48CE49DE19093AD018093AC0107B600FC4B
:20728000FDCFF999FECF81E180935700E89503C0843519F494DF8DE00DC28C34E1F38035F9
:2072A000D1F3843721F484E4A2DF80E003C2813611F489E5FFC18134B1F481DF182F7FDFE3
:2072C00090E0880F991FAA2797FDA095BA2F312F330F20E0442737FD4095542F822B932B68
:2072E000A42BB52BB8C1803711F483E5E3C1833549F4C0E0D1E089917ADF21E0C730D20714
:20730000D1F7D9C1863521F481E371DF80E3D2C1833731F487E86BDF85E969DF8EE1CAC149
:207320008536B9F4E0E0F0E093E085E090935700E89507B600FCFDCF80935700E89507B65D
:2073400000FCFDCFE058FF4FA0E7E030FA0771F7A2CF823739F4E1E0F0E089E08093570024
:207360008491A8C1863439F4E0E0F0E089E08093570084919FC18E3439F4E3E0F0E089E0E5
:2073800080935700849196C1813539F4E2E0F0E089E08093570084918DC1823631F489E521
:2073A00026DF80E024DF80E885C1823419F0873609F0E5C01092AD011092AC0100DF082FE8
:2073C000FEDEF82EFCDE682E8554823008F071C1902F80E0CF2DD0E0C82BD92B10926F00B3
:2073E000173609F04BC081E180935700E895DD24CC24C3943FC0E090AE01F090AF010091CC
:20740000B0011091B101B6E46B16D9F4ED2DF0E0EE29FF29E4918E2FEADEDD2081F082E08D
:2074200090E0A0E0B0E0E80EF91E0A1F1B1FE092AE01F092AF010093B0011093B101DC2470
:2074400018C0D801C701B695A7959795879559D5CEDE82E090E0A0E0B0E0E80EF91E0A1FF2
:207460001B1FE092AE01F092AF010093B0011093B1012197209709F0BECF7DC08090AE01F5
:207480009090AF01A090B001B090B10196E4691609F05DC083E0F40180935700E89507B63E
:2074A00000FCFDCF54C0F6E46F1661F5772031F1E090AE01F090AF010091B0011091B1019E
:2074C0007EDED82ECC24852D90E08C299D29F7010C0140925700E895112482E090E0A0E08B
:2074E000B0E0E80EF91E0A1F1B1FE092AE01F092AF010093B0011093B10102C060DE582E1A
:20750000742423C0E090AE01F090AF010091B0011091B10116950795F794E79450DE682FFA
:20752000C701F7D48091AE019091AF01A091B001B091B1010296A11DB11D8093AE01909349
:20754000AF01A093B001B093B101219704C05524772444244394209709F0A5CF96E46916B6
:2075600041F485E0F40180935700E89507B600FCFDCF8DE03CDE82E080936F009CC0833492
:2075800071F40091AE011091AF0119DE90E021E0F8010C0120935700E89511247CCE8336C8
:2075A00019F5E090AE01F090AF010091B0011091B10105DEF701E16090E021E00C0120938C
:2075C0005700E895112482E090E0A0E0B0E0E80EF91E0A1F1B1FE092AE01F092AF0100936A
:2075E000B0011093B10157CE8D3661F4E091AE01F091AF0185E080935700E89507B600FCF2
:20760000FDCF49CE823551F4E091AE01F091AF0105911491812FEBDD802F4CC0843421F5FE
:20762000E090AE01F090AF010091B0011091B10116950795F794E794C2DD682FC70169D4DE
:207640008091AE019091AF01A091B001B091B1010296A11DB11D8093AE019093AF01A093D8
:20766000B001B093B10117CE843609F5E090AE01F090AF010091B0011091B101D801C70142
:20768000B695A795979587953CD4B1DD82E090E0A0E0B0E0E80EF91E0A1F1B1FE092AE010A
:2076A000F092AF010093B0011093B10104C08B3111F08FE39CDD83E08093E9009091E8002B
:2076C0008091E8008E778093E80095FF04C010C08EB38823C9F08091E80080FFF9CF809193
:2076E000E8008E778093E80003C08EB3882361F08091E80080FFF9CF84E08093E9008091F1
:20770000E8008B778093E800DF91CF911F910F91FF90EF90DF90CF90BF90AF909F908F90AC
:207720007F906F905F904F9008959091B601892F8F77813249F58091B7018032A1F081328A
:2077400019F5913A09F58091E800877F8093E8008DE091E067E070E00BD28091E8008B770B
:207760008093E8000895913279F48091E800877F8093E8008DE091E067E070E05DD2809192
:20778000E8008E778093E800089582E061EC42E0B5D083E061E842E1B1D084E060E842E1EF
:2077A000ADC084B7877F84BF88E10FB6F89480936000109260000FBE20E880E090E00FB63F
:2077C000F89420936100809361000FBE81E085BF92E095BF3F9A209A559AE1E6F0E02083A1
:2077E000108247985D982898109289008AEF8093880090936F0083E080938100F0C040911A
:20780000000850910108109201081092000894B714BE88E10FB6F8948093600010926000D5
:207820000FBE292F30E0F901E270F07091FD18C090FF05C0859194918F5F9F4F81F423FFFF
:207840000FC08091090190910A014817590741F0E0E0F0E0859194918F5F9F4F09F042DC64
:20786000A0DF78941092AD011092AC010CC0DEDC36D38091AC019091AD0181549F4110F00D
:207880001092140141DC80911401882381F78091E00081608093E00025DC80E090E0089598
:2078A000FA01923049F0933061F09130F9F485E191E022E130E01EC087E291E02EE330E04D
:2078C00019C0882329F485E691E024E030E012C0813029F489E691E022E230E00BC0823006
:2078E00029F48DE891E028E130E004C080E090E020E030E091838083C90108958093E9004E
:207900008091EB0081608093EB001092ED006093EC004093ED008091EE00881F8827881F62
:2079200008958091B60188238CF403C08EB38823B1F08091E80082FFF9CF8091E8008B772A
:207940008093E80008958EB3882349F08091E80080FFF9CF8091E8008E778093E800089594
:20796000EF92FF920F931F9345D04CD008ED10E0F80180818F77808380818068808380819B
:207980008F7D808319BC1EBA1092B40180EEE82EF12CF70180818B7F8083F8018081816052
:2079A000808380E060E042E0A9DFE1EEF0E080818E7F8083E2EEF0E0808181608083808144
:2079C00088608083F70180818E7F8083F8018081806180831F910F91FF90EF900895E7ED06
:2079E000F0E08081816080838AE482BF81E08093B501B6CFE8EDF0E080818E7F808310921C
:207A0000E20008951092DA001092E10008951F920F920FB60F9211242F933F934F935F93F6
:207A20006F937F938F939F93AF93BF93EF93FF938091DA0080FF1BC08091D80080FF17C0B2
:207A40008091DA008E7F8093DA008091D90080FF0BC080E189BD82E189BD09B400FEFDCF36
:207A600081E08EBB3BD203C019BC1EBA37D28091E10080FF17C08091E20080FF13C0809138
:207A8000E2008E7F8093E2008091E20080618093E2008091D80080628093D80019BC85E049
:207AA0008EBB1CD28091E10084FF2CC08091E20084FF28C080E189BD82E189BD09B400FEC5
:207AC000FDCF8091D8008F7D8093D8008091E1008F7E8093E1008091E2008F7E8093E20012
:207AE0008091E20081608093E2008091B401882331F48091E30087FD02C081E001C084E067
:207B00008EBBECD18091E10083FF21C08091E20083FF1DC08091E100877F8093E10082E06A
:207B20008EBB1092B4018091E1008E7F8093E1008091E2008E7F8093E2008091E2008061E9
:207B40008093E20080E060E042E0D8DEC7D1FF91EF91BF91AF919F918F917F916F915F9130
:207B60004F913F912F910F900FBE0F901F9018959C014091BC015091BD014617570718F49D
:207B8000F90190E044C06115710511F0AB01F8CF8091E8008E778093E80040E050E0F0CF0F
:207BA0008EB3882309F444C0853009F443C08091E80083FF02C081E008958091E80082FD70
:207BC00031C08091E80080FF22C08091F3009091F200782F60E0292F30E0262B372B07C07A
:207BE00081918093F100415050402F5F3F4F4115510519F02830310598F390E02830310566
:207C000009F491E08091E8008E778093E8004115510531F6992321F605C08EB3882341F075
:207C2000853041F08091E80082FFF7CF80E0089582E0089583E008959C016115710529F47C
:207C40008091E8008B778093E800F90126C08EB3882391F1853091F18091E80083FF02C06C
:207C600081E008958091E80082FFF1CF06C08091F10081936150704059F02091F300809191
:207C8000F200322F20E090E0822B932B892B79F78091E8008B778093E80061157105B9F601
:207CA00005C08EB3882341F0853041F08091E80080FFF7CF80E0089582E0089583E00895C2
:207CC0000F931F93DF93CF9300D0CDB7DEB7E6EBF1E08091F100819381E0EE3BF807C9F792
:207CE00024DD8091E80083FFE4C08091B6019091B701953009F46DC0963040F4913081F1A7
:207D0000913070F0933009F0D4C02AC0983009F4A3C0993009F4B2C0963009F0CAC07CC023
:207D2000803809F4C6C0823809F0C3C08091BA0187708093E9008091EB001092E9002091DB
:207D4000E800277F2093E80090E025E0969587952A95E1F781708093F1001092F10087C0D8
:207D6000882319F0823009F0A4C08F71823009F0A0C08091B801882331F52091BA01277097
:207D800009F497C02093E9008091EB0080FF1BC0933021F48091EB00806213C08091EB0018
:207DA00080618093EB0081E090E002C0880F991F2A95E2F78093EA001092EA008091EB00E5
:207DC00088608093EB001092E9008091E800877F51C0882309F06DC01091B8011F770FB79B
:207DE000F8948091E800877F8093E8009ADD8091E80080FFFCCF8091E3008078812B809398
:207E0000E30080688093E300112311F482E001C083E08EBB0FBF4DC08058823008F049C033
:207E20008091B8019091B9016091BA01AE014F5F5F4F36DDBC01009709F43BC08091E8008E
:207E4000877F8093E80089819A8192DE8091E8008B778093E8002DC0803859F58091E800AA
:207E6000877F8093E8008091B4018093F1008091E8008E778093E80054DD1BC08823C9F4CA
:207E80009091B8019230A8F48091E800877F8093E8009093B40145DD8091B401882331F420
:207EA0008091E30087FD02C081E001C084E08EBB6CDC8091E80083FF0AC08091EB0080624E
:207EC0008093EB008091E800877F8093E8000F900F90CF91DF911F910F91089508951F9360
:207EE0008EB3882361F01091E9001092E9008091E80083FF01C0E4DE17701093E9001F916F
:207F00000895F999FECF92BD81BDF89A992780B50895262FF999FECF1FBA92BD81BD20BDBD
:207F20000FB6F894FA9AF99A0FBE01960895F894FFCF4341544552494E4100777700080031
:207F40000000000000080112011001020000084123370001000201000109023E00020100FE
:207F600080320904000001020201000524001001042402040524060001070582030800FF0C
:207F800009040100020A000000070504021000010705830210000104030904220341007216
:207FA000006400750069006E006F0020004D006900630072006F0020002000200000001810
:1A7FC00003410072006400750069006E006F0020004C004C004300000000D7
:00000001FF
